S01600006C696768742073657175656E63652E737265637D
S11300000C942A000C94AC010C943C000C943C001D
S11300100C943C000C943C000C943C000C943C006C
S11300200C943C000C943C000C943C000C943C005C
S11300300C943C000C943C000C943C000C943C004C
S11300400C943C000C943C000C943C000C943C003C
S11300500C943C0011241FBECFE5D8E0DEBFCDBF19
S113006020E0A0E6B0E001C01D92A136B207E1F79E
S11300700E940E010C94B8020C94000092B39817DD
S113008048F0683048F440E062E083E00E94C60132
S113009080E0089581E0089582E0089595B398176B
S11300A048F0683048F441E062E082E00E94C60112
S11300B080E0089581E0089582E0089595B398174B
S11300C048F0683048F441E062E082E00E94370280
S11300D080E0089581E0089582E0089595B398172B
S11300E048F0683048F440E062E082E00E94370261
S11300F080E0089581E0089582E0089595B398170B
S113010048F0683048F441E062E082E00E94C601B1
S113011080E0089581E0089582E0089595B39817EA
S113012048F0683048F441E062E082E00E9437021F
S113013080E0089581E0089582E0089595B39817CA
S113014048F0683048F440E062E082E00E94370200
S113015080E0089581E0089582E0089595B39817AA
S113016048F0683048F441E062E082E00E94C60151
S113017080E0089581E0089582E0089595B398178A
S113018048F0683048F441E062E082E00E943702BF
S113019080E0089581E0089582E0089595B398176A
S11301A048F0683048F440E062E082E00E943702A0
S11301B080E0089581E0089582E0089595B398174A
S11301C048F0683048F441E062E082E00E94C601F1
S11301D080E0089581E0089582E0089595B398172A
S11301E048F0683048F441E062E082E00E9437025F
S11301F080E0089581E0089582E0089595B398170A
S113020048F0683048F440E062E082E00E9437023F
S113021080E0089581E0089582E0089582B362E069
S11302200E943E0085B362E00E944E0085B363E005
S11302300E947E0085B364E00E94AE0085B365E051
S11302400E94DE000E94A80280916000813029F49F
S113025085B362E00E945E00F7CF823049F485B333
S113026063E00E948E0085B362E00E945E00ECCFE2
S1130270833069F485B364E00E94BE0085B363E013
S11302800E948E0085B362E00E945E00DDCF843060
S113029089F485B365E00E94EE0085B364E00E94B2
S11302A0BE0085B363E00E948E0085B362E00E94C5
S11302B05E00CACF853089F485B362E00E946E0087
S11302C085B365E00E94EE0085B364E00E94BE0041
S11302D085B363E00E948E00B7CF863089F485B37E
S11302E062E00E946E0085B365E00E94EE0085B373
S11302F064E00E94BE0085B363E00E949E00A4CF28
S1130300873089F485B362E00E946E0085B365E0AE
S11303100E94EE0085B364E00E94CE0085B363E0E2
S11303200E949E0091CF883089F485B362E00E94D8
S11303306E0085B365E00E94FE0085B364E00E9410
S1130340BE0085B363E00E949E007ECF893009F031
S11303507BCF80E090E008951F920F920FB60F922A
S113036011248F939F938091600091E0980F9930AE
S113037020F48E5F8093600002C0109260009F9111
S11303808F910F900FBE0F901F901895442319F072
S11303904130C9F10895813091F028F08230D9F0CC
S11303A0833029F108952AB381E090E002C0880FD8
S11303B0991F6A95E2F7809582238ABB089527B333
S11303C081E090E002C0880F991F6A95E2F780955A
S11303D0822387BB089524B381E090E002C0880F94
S11303E0991F6A95E2F78095822384BB089521B30F
S11303F081E090E002C0880F991F6A95E2F780952A
S1130400822381BB0895813089F028F08230C9F0BD
S1130410833011F108952AB381E090E002C0880F7F
S1130420991F6A95E2F7822B8ABB089527B381E06E
S113043090E002C0880F991F6A95E2F7822B87BB70
S1130440089524B381E090E002C0880F991F6A9553
S1130450E2F7822B84BB089521B381E090E002C0CF
S1130460880F991F6A95E2F7822B81BB0895442374
S113047019F04130C9F10895813091F028F08230AB
S1130480D9F0833029F108952BB381E090E002C0C4
S1130490880F991F6A95E2F7809582238BBB089594
S11304A028B381E090E002C0880F991F6A95E2F7B3
S11304B08095822388BB089525B381E090E002C033
S11304C0880F991F6A95E2F78095822385BB08956A
S11304D022B381E090E002C0880F991F6A95E2F789
S11304E08095822382BB0895813089F028F0823080
S11304F0C9F0833011F108952BB381E090E002C07C
S1130500880F991F6A95E2F7822B8BBB089528B355
S113051081E090E002C0880F991F6A95E2F7822B70
S113052088BB089525B381E090E002C0880F991F2D
S11305306A95E2F7822B85BB089522B381E090E0AF
S113054002C0880F991F6A95E2F7822B82BB089537
S1130550F89484B795B78E7F95BF84BF84B795B759
S1130560826095BF84BF8BB780648BBF78940895F5
S1070570F894FFCF29
S9030000FC
